:100000000C9462000C948A000C948A000C948A0070
:100010000C948A000C948A000C948A000C948A0038
:100020000C948A000C948A000C948A000C948A0028
:100030000C948A000C948A000C948A000C948A0018
:100040000C94DF050C948A000C94AD050C94870584
:100050000C948A000C948A000C948A000C948A00F8
:100060000C948A000C948A000000000024002700F1
:100070002A0000000000250028002B0000000008D6
:10008000000201000003040700000000000000005F
:1000900000000000230026002900040404040404D6
:1000A0000404020202020202030303030303010227
:1000B00004081020408001020408102001020408F6
:1000C00010206E0611241FBECFEFD8E0DEBFCDBFDB
:1000D00022E0ACEDB1E001C01D92AF3DB207E1F707
:1000E00011E0A0E0B1E0E8E8F9E102C005900D926E
:1000F000AC3DB107D9F710E0C2E6D0E004C02197CB
:10010000FE010E94BC0CC136D107C9F70E94CD0682
:100110000C94C20C0C940000E9EEF1E0A089B189C6
:1001200082E08C93A485B5851C92A685B7858FEC5B
:100130008C93108EA489B58986E08C93A289B389AB
:100140008C9180618C93A289B3898C9188608C9307
:10015000A289B3898C9180688C930288F389E02D01
:1001600080818F7D80830895CF92DF92EF92FF92FE
:10017000CF93DF93B091D302A0E08111AB2F809198
:10018000D40290E0880F991FAC0140575F4FC09098
:10019000D902D090DA02E090DB02F090DC0230E08D
:1001A00020E0FA01C591D491E881B90190E080E0A6
:1001B000EB23EA130AC02F5F3F4F6C157D058E05B8
:1001C0009F0578F36FEF7FEFCB01DF91CF91FF9029
:1001D000EF90DF90CF900895AF92BF92CF92DF92D1
:1001E000EF92FF920F931F93CF93DF936C017B01EC
:1001F0008B01040F151FEB015E01AE18BF08C0177D
:10020000D10759F06991D601ED91FC910190F081EF
:10021000E02DC6010995892B79F7C501DF91CF91B2
:100220001F910F91FF90EF90DF90CF90BF90AF9014
:100230000895FC01538D448D252F30E0842F90E0EC
:10024000821B930B541710F0CF96089501970895D1
:10025000FC01918D828D981761F0A28DAE0FBF2F9A
:10026000B11D5D968C91928D9F5F9F73928F90E0F0
:1002700008958FEF9FEF0895FC01918D828D98175F
:1002800031F0828DE80FF11D858D90E008958FEF9C
:100290009FEF0895FC01918D228D892F90E0805C65
:1002A0009F4F821B91098F739927089589EE91E0E2
:1002B0000E944A0121E0892B09F420E0822F089551
:1002C00080E090E0892B29F00E94560181110C9466
:1002D00000000895FC01A48DA80FB92FB11DA35AE9
:1002E000BF4F2C91848D90E001968F739927848F56
:1002F000A689B7892C93A089B1898C918370806479
:100300008C93938D848D981306C00288F389E02D19
:1003100080818F7D80830895EF92FF920F931F93CA
:10032000CF93DF93EC0181E0888F9B8D8C8D9813A8
:100330001AC0E889F989808185FF15C09FB7F894B4
:10034000EE89FF896083E889F98980818370806400
:1003500080839FBF81E090E0DF91CF911F910F914B
:10036000FF90EF900895F62E0B8D10E00F5F1F4F5A
:100370000F731127E02E8C8D8E110CC00FB607FC69
:10038000FACFE889F989808185FFF5CFCE010E94F7
:100390006A01F1CFEB8DEC0FFD2FF11DE35AFF4FFA
:1003A000F0829FB7F8940B8FEA89FB898081806285
:1003B000CFCFCF93DF93EC01888D8823B9F0AA8942
:1003C000BB89E889F9898C9185FD03C0808186FD10
:1003D0000DC00FB607FCF7CF8C9185FFF2CF80815F
:1003E00085FFEDCFCE010E946A01E9CFDF91CF9169
:1003F000089590E0FC01E458FF4F2491FC01E25580
:10040000FF4F3491FC01E656FF4FE491EE23C9F013
:10041000222339F0233001F1A8F4213019F12230E0
:1004200029F1F0E0EE0FFF1FEE58FF4FA591B491B8
:100430008FB7F894EC91611126C030953E233C9320
:100440008FBF08952730A9F02830C9F0243049F72C
:10045000809180008F7D03C0809180008F77809392
:100460008000DFCF84B58F7784BDDBCF84B58F7DEF
:10047000FBCF8091B0008F778093B000D2CF809176
:10048000B0008F7DF9CF3E2BDACFCF93DF9390E092
:10049000FC01E255FF4F249186569F4FFC01849149
:1004A0008823C9F090E0880F991FFC01E859FF4F9D
:1004B000A591B491FC01EE58FF4FC591D491611103
:1004C0000DC09FB7F8948C91209582238C938881DE
:1004D000282328839FBFDF91CF910895623051F484
:1004E0009FB7F8943C91822F809583238C93E88169
:1004F0002E2BEFCF8FB7F894EC912E2B2C938FBF30
:10050000EACF3FB7F8948091E1019091E201A09188
:10051000E301B091E40126B5A89B05C02F3F19F077
:100520000196A11DB11D3FBFBA2FA92F982F882773
:10053000BC01CD01620F711D811D911D42E0660F4E
:10054000771F881F991F4A95D1F708958F929F9220
:10055000AF92BF92CF92DF92EF92FF924B015C017C
:100560000E9481026B017C010E9481026C197D094D
:100570008E099F09683E734081059105A8F321E02B
:10058000821A9108A108B10888EEC80E83E0D81E2F
:10059000E11CF11C81149104A104B10429F7FF901E
:1005A000EF90DF90CF90BF90AF909F908F90089585
:1005B0002FB7F8946091DD017091DE018091DF0129
:1005C0009091E0012FBF0895CF92DF92EF92FF92BA
:1005D0000F931F93CF93DF93CDB7DEB7C054D140B5
:1005E0000FB6F894DEBF0FBECDBF0E94D8020091B7
:1005F000D5021091D6022091D7023091D8026B011A
:100600007C01C01AD10AE20AF30A97018601003D73
:1006100017402105310590F48091DD02C05CDE4F6A
:100620000FB6F894DEBF0FBECDBFDF91CF911F9103
:100630000F91FF90EF90DF90CF9008956093D502D7
:100640007093D6028093D7029093D8021092D00272
:100650001092CF021092CE021092CD021092CC02D4
:1006600062E08091D1020E94450261E070E080E08A
:1006700090E00E94A60261E08091D1020E944502B2
:1006800060E08091D1020E94F9018091D2028551EF
:10069000823020F58BE291E10197F1F762E08091E1
:1006A000D1020E9445028091DE0290E082309105E5
:1006B00038F0880F991F880F991F05970197F1F758
:1006C000F89480E00E94B4006F3F7F4F8F4F9F4FA0
:1006D00061F41092DD02789480E0A0CF64E170E0D4
:1006E00080E090E00E94A602D9CF81E00E94B40091
:1006F0006F3F7F4F8F4F9F4F61F38E010F5F1F4FF3
:100700006E012FEBC21A2EEFD20A780180E00E9410
:10071000B400F701608371838283938381E00E9438
:10072000B400F7016483758386839783F8E0EF0E46
:10073000F11CEC14FD0451F7789430E020E0F8014E
:10074000C080D180E280F3804481558166817781C9
:10075000FFEFCF16DF06EF06FF0631F04F3F8FEFBA
:1007600058076807780719F41092DD02B5CFF90130
:1007700083E0F595E7958A95E1F7E453FD4F808195
:10078000880FC416D506E606F70610F180832F5FA2
:100790003F4F085F1F4F2832310589F64091D00244
:1007A0002091CC028091CD02280F3327331F8091F6
:1007B000CE02280F311D8091CF02820F932F911D01
:1007C00099274817190681F681E08093DD0226CF2C
:1007D0008160DCCFFC0101900020E9F73197AF0187
:1007E000481B590BBC0189EE91E00C94EC008F92F0
:1007F0009F92AF92BF920F931F93CF93DF93CDB78A
:10080000DEB7A1970FB6F894DEBF0FBECDBF19A219
:10081000423008F44AE08E010F5D1F4F842E912C68
:10082000B12CA12CA50194010E94630BE62FB90104
:10083000CA01EA30F4F4E05DD801EE938D01232B78
:10084000242B252B79F790E080E0109719F0CD014B
:100850000E94EA03A1960FB6F894DEBF0FBECDBF8B
:10086000DF91CF911F910F91BF90AF909F908F908C
:100870000895E95CE1CFCF92DF92EF92FF92CF93A0
:10088000DF936B017C016DE289EE91E00E948C01A7
:10089000EC0166277727CB016C197D098E099F092A
:1008A0004AE00E94F7038C0F9D1FDF91CF91FF90CC
:1008B000EF90DF90CF9008950C94EA034F925F92EF
:1008C0006F927F928F929F92AF92BF92CF92DF9260
:1008D000EF92FF920F931F93CF936B017C01742EC5
:1008E000AC019B010E94980C882399F082E191E071
:1008F000CF911F910F91FF90EF90DF90CF90BF901D
:10090000AF909F908F907F906F905F904F900C94DE
:10091000EA0346015701E894B7F82FEF3FEF4FE79E
:100920005FE7C501B4010E94980C81110DC02FEF43
:100930003FEF4FE75FE7C501B4010E943F0A181679
:100940001CF486E191E0D4CF2FEF3FEF4FE75FE457
:10095000C701B6010E94930C18161CF48AE191E0BD
:10096000C7CF2FEF3FEF4FE75FECC701B6010E9403
:100970003F0A87FDF3CF20E030E0A901C701B601AF
:100980000E943F0A10E000E087FF0AC06DE289EE96
:1009900091E00E948C018C01F7FAF094F7F8F09442
:1009A000C0E060E070E080E09FE37C1641F020E072
:1009B00030E040E251E40E94F20BCF5FF6CFA70196
:1009C00096010E94860B2B013C010E94640C4B0196
:1009D0005C014AE00E94F7037C01E00EF11ECC238B
:1009E000C1F1C501B4010E94440A9B01AC01C301DD
:1009F000B2010E94850B4B015C016EE289EE91E031
:100A00000E948C01E80EF91EC15018F120E030E080
:100A100040E251E4C501B4010E94A50A2B013C014A
:100A20000E94640C4B01B12CA12C4AE0C501B40119
:100A30000E94F703E80EF91EC501B4010E94440AA2
:100A40009B01AC01C301B2010E94850B4B015C010B
:100A5000DBCFC701CF911F910F91FF90EF90DF90F7
:100A6000CF90BF90AF909F908F907F906F905F904E
:100A70004F9008951F93CF93DF9300D000D0CDB750
:100A8000DEB789EE91E00E94280189EE91E00E9494
:100A9000280110E08A3379F0E1E0F0E0EC0FFD1F6F
:100AA000E10FF11D17FDFA9580831F5F89EE91E03C
:100AB0000E942801EFCFCE0101960E94190A182F3B
:100AC00089EE91E00E9428018053990B82309105B4
:100AD00020F4682F812F0E94F90189EE91E00E9495
:100AE00028018A3011F08D30C1F789EE91E00E9423
:100AF0003C018A3021F489EE91E00E9428010F9098
:100B00000F900F900F90DF91CF911F9108951F923A
:100B10000F920FB60F9211242F933F934F935F9331
:100B20006F937F938F939F93AF93BF93EF93FF93B5
:100B300089EE91E00E946A01FF91EF91BF91AF9120
:100B40009F918F917F916F915F914F913F912F91E5
:100B50000F900FBE0F901F9018951F920F920FB617
:100B60000F9211242F938F939F93EF93FF93E09114
:100B7000F901F091FA018081E091FF01F09100020A
:100B800082FD1BC09081809102028F5F8F73209144
:100B90000302821741F0E0910202F0E0E751FE4FBC
:100BA000958F80930202FF91EF919F918F912F91EA
:100BB0000F900FBE0F901F9018958081F4CF1F9259
:100BC0000F920FB60F9211242F933F938F939F9301
:100BD000AF93BF938091DD019091DE01A091DF0181
:100BE000B091E0013091DC0123E0230F2D3758F55F
:100BF0000196A11DB11D2093DC018093DD0190932E
:100C0000DE01A093DF01B093E0018091E1019091BA
:100C1000E201A091E301B091E4010196A11DB11D93
:100C20008093E1019093E201A093E301B093E4018A
:100C3000BF91AF919F918F913F912F910F900FBED8
:100C40000F901F90189526E8230F0296A11DB11D45
:100C5000D2CFCF92DF92EF92FF920F931F93E82FA4
:100C6000F92F05C0015011092109310961F1908165
:100C700096239417B9F305C00150110921093109D0
:100C800011F1908196239413F7CFC12CD12CE12C34
:100C9000F12C0AC08FEFC81AD80AE80AF80A0C1516
:100CA0001D052E053F0579F080818623841791F379
:100CB0006C2D7D2D8E2D9F2D1F910F91FF90EF900C
:100CC000DF90CF90089560E070E080E090E01F91A9
:100CD0000F91FF90EF90DF90CF900895E9EEF1E053
:100CE0001382128288EE93E0A0E0B0E084839583C3
:100CF000A683B78384E091E09183808385EC90E0C4
:100D00009587848784EC90E09787868780EC90E0D5
:100D1000918B808B81EC90E0938B828B82EC90E0C6
:100D2000958B848B86EC90E0978B868B118E128E40
:100D3000138E148EE6E8F2E0168217821086118672
:100D4000128613861486158616861786108A118ACF
:100D5000128A138A148A158AACECB2E08EE01596DA
:100D60008C9315978BE016968C931697ECEBF0E02E
:100D7000E4911796EC931797E8EAF0E0E49118965F
:100D8000EC93189740E85EE360E070E01D964D93A9
:100D90005D936D937C9350970895789484B58260A9
:100DA00084BD84B5816084BD85B5826085BD85B50F
:100DB000816085BD80916E00816080936E0010928D
:100DC0008100809181008260809381008091810008
:100DD0008160809381008091800081608093800099
:100DE0008091B10084608093B1008091B0008160F7
:100DF0008093B00080917A00846080937A00809123
:100E00007A00826080937A0080917A00816080937A
:100E10007A0080917A00806880937A001092C100F5
:100E20001092C8021092C9021092CA021092CB020C
:100E3000109288021092890210928A0210928B02FC
:100E40000E94D8026B017C014B015C0128EB820EF1
:100E50002BE0921EA11CB11C0E94D8026C157D05CE
:100E60008E059F0528F086169706A806B906A0F7F6
:100E700068EE73E080E090E00E94A6020E948C0081
:100E80000E94D802609388027093890280938A023C
:100E900090938B028EE191E00E945C040E94D80244
:100EA0006B017C014B015C013AE0830E911CA11C9B
:100EB000B11C0E94D8026C157D058E059F0528F097
:100EC00086169706A806B906A0F781E080939C02D3
:100ED0000E94D802609388027093890280938A02EC
:100EE00090938B028FE291E00E945C040E948C0040
:100EF00062E08091D1020E9445020E94D802605DAA
:100F00007740810991096093D5027093D60280934E
:100F1000D7029093D80287E38093DE0261E087E0F6
:100F20000E94450261E08CE00E94450260E08DE095
:100F30000E94450261E086E00E94450223E2222EE3
:100F4000312CC0E0D0E00E94D802672B682B692BBF
:100F500009F4F4C00E94D802C090E501D090E601E7
:100F6000E090E701F090E8016C157D058E059F0586
:100F700008F445C1C090E501D090E601E090E7019A
:100F8000F090E8019B01AC012C193D094E095F0965
:100F900069017A013AEFC316D104E104F10408F4BF
:100FA000D5C06093E5017093E6018093E7019093CB
:100FB000E80184EF91E0A0E0B0E080939402909388
:100FC0009502A0939602B093970210929802109205
:100FD000990210929A0210929B0280918C02909139
:100FE0008D02A0918E02B0918F0280939002909317
:100FF0009102A0939202B09393020E94D802609350
:101000008C0270938D0280938E0290938F0289EEF2
:1010100091E00E943C01843611F40E943A050E943E
:10102000D802609388027093890280938A02909319
:101030008B020E94D8026B017C0186E391E00E9442
:101040005C044AE061E070E080E090E00E94F70319
:101050008DE391E00E945C044AE0C701B6010E9462
:10106000F7038FE391E00E945C0480918C029091E1
:101070008D02A0918E02B0918F02A7019601281BCC
:10108000390B4A0B5B0BCA01B9014AE00E94F70316
:101090008FE391E00E945C0460918C0270918D025C
:1010A00080918E0290918F02C0909002D090910218
:1010B000E0909202F09093026C197D098E099F09CD
:1010C0004AE00E94F70381E491E00E945C040E94E0
:1010D000D8024AE00E94F70383E491E00E94EA0309
:1010E0008AE491E00E94EA030E94D8026B017C012D
:1010F0004B015C0135E0830E911CA11CB11C0E94C8
:10110000D8026C157D058E059F0528F0861697067A
:10111000A806B906A0F789EE91E00E943C0184364A
:1011200011F40E943A050E94D80260938C027093D9
:101130008D0280938E0290938F0208C00E94D80285
:10114000623071058105910508F004CF61E08CE003
:101150000E94F901C1010197F1F760E08CE00E9463
:10116000F901EBEBF0E06491E7EAF0E08491E82F1D
:10117000F0E0EE0FFF1FE057FF4F8591949100E4E0
:1011800012E42FE030E0462F0E9429066B017C011B
:10119000C114D104E104F10439F0FFEFCF1ADF0AE2
:1011A000EF0AFF0A2FE0F222C701B6012AE430E07D
:1011B00040E050E00E949D0C29013A01C701B601B0
:1011C0002AE330E040E050E00E949D0C49015A01C2
:1011D0008DE491E00E945C040E94E402882351F0B7
:1011E0008091D2028B3030F08D3090F0855182307A
:1011F00008F446C060E070E080EC9FE725C0609393
:10120000E5017093E6018093E7019093E801B2CE87
:101210006091CD0270E090E080E00E94460A2DECE3
:101220003CEC4CEC5DE30E94A50A6B017C016091F3
:10123000CC0270E090E080E00E94460A9B01AC0185
:10124000C701B6010E94860B42E00E945E0481E65F
:1012500091E00E945C0486E691E00E945C040E949A
:10126000E402882341F08091D2028C3009F4B8C0A6
:10127000C8F48B3081F160E070E080EC9FE753C0F0
:101280006091CC027091CD0276276727762790E097
:1012900080E00E94440A2DEC3CEC4CEC5DE30E94A3
:1012A000A50AD2CF8551823030F71091CE02612F3E
:1012B00070E0762F662766277F778091CF02682BB4
:1012C00090E080E00E94440A2DEC3CEC4CEC5DE3A5
:1012D0000E94A50AA1C06091CE0270E090E080E07B
:1012E0000E94440A6B017C011091CF0217FF0AC0D3
:1012F000AC019B0160E070E080E89FEB0E94850BF1
:101300006B017C011F70612F70E090E080E00E9413
:10131000460A2DEC3CEC4CEC5DE30E94A50AA701CB
:1013200096010E94860B42E00E945E048DE791E0E8
:101330000E94EA038AE491E00E94EA0382E891E0D5
:101340000E945C044AE0C501B4010E94F70384E9ED
:1013500091E00E945C048AE991E00E945C044AE00A
:10136000C301B2010E94F70380EB91E00E945C048C
:1013700060E086E00E94F9013BE083169104A1043D
:10138000B1040CF04DC060E087E00E94F9018BEBE6
:1013900091E00E945C0461E086E00E94F90164E152
:1013A00070E080E090E00E94A60260E086E00E948B
:1013B000F90164E170E080E090E00E94A60268EE2E
:1013C00073E080E090E00E94A602209709F4BBCD74
:1013D0000E945601882309F4B6CD0E940000B3CDC7
:1013E0001091CE02612F70E090E080E00E94440AEC
:1013F0006B017C016091CF026F7070E090E080E043
:101400000E94460A2DEC3CEC4CEC5DE30E94A50AE0
:10141000A70196010E94860B17FF85CF905883CFB6
:1014200061E087E00E94F90160E086E00E94F90136
:10143000C6CFFC0188279927E89421912032E9F34F
:10144000293010F02E30C8F32B3241F02D3239F410
:10145000689404C00E94370A820F911D2191205385
:101460002A30C0F31EF4909581959F4F08957AE03D
:10147000979F902D879F802D910D112408950E9494
:10148000810A08F481E00895E89409C097FB3EF4CE
:1014900090958095709561957F4F8F4F9F4F9923C1
:1014A000A9F0F92F96E9BB279395F695879577953F
:1014B0006795B795F111F8CFFAF4BB0F11F460FFFF
:1014C0001BC06F5F7F4F8F4F9F4F16C0882311F057
:1014D00096E911C0772321F09EE8872F762F05C06B
:1014E000662371F096E8862F70E060E02AF09A9506
:1014F000660F771F881FDAF7880F9695879597F9FB
:101500000895990F0008550FAA0BE0E8FEEF161694
:101510001706E807F907C0F012161306E407F507E7
:1015200098F0621B730B840B950B39F40A2661F05B
:10153000232B242B252B21F408950A2609F4A140FE
:10154000A6958FEF811D811D08950E94B80A0C9405
:10155000290B0E941B0B38F00E94220B20F09523D0
:1015600011F00C94120B0C94180B11240C945D0BBD
:101570000E943A0B70F3959FC1F3950F50E0551FF1
:10158000629FF001729FBB27F00DB11D639FAA27D8
:10159000F00DB11DAA1F649F6627B00DA11D661F27
:1015A000829F2227B00DA11D621F739FB00DA11D48
:1015B000621F839FA00D611D221F749F3327A00D02
:1015C000611D231F849F600D211D822F762F6A2F9E
:1015D00011249F5750409AF0F1F088234AF0EE0F03
:1015E000FF1FBB1F661F771F881F91505040A9F730
:1015F0009E3F510580F00C94120B0C945D0B5F3FE5
:10160000E4F3983ED4F3869577956795B795F7956B
:10161000E7959F5FC1F7FE2B880F911D96958795E3
:1016200097F9089597F99F6780E870E060E0089562
:101630009FEF80EC089500240A94161617061806EA
:101640000906089500240A941216130614060506C6
:101650000895092E0394000C11F4882352F0BB0F57
:1016600040F4BF2B11F460FF04C06F5F7F4F8F4FBA
:101670009F4F089557FD9058440F551F59F05F3FF5
:1016800071F04795880F97FB991F61F09F3F79F0A4
:1016900087950895121613061406551FF2CF469526
:1016A000F1DF08C0161617061806991FF1CF8695A8
:1016B0007105610508940895E894BB27662777278C
:1016C000CB0197F90895A1E21A2EAA1BBB1BFD01BD
:1016D0000DC0AA1FBB1FEE1FFF1FA217B307E40711
:1016E000F50720F0A21BB30BE40BF50B661F771F69
:1016F000881F991F1A9469F7609570958095909549
:101700009B01AC01BD01CF0108955058BB27AA270A
:101710000E949D0B0C94290B0E941B0B38F00E9419
:10172000220B20F039F49F3F19F426F40C94180B87
:101730000EF4E095E7FB0C94120BE92F0E943A0B94
:1017400058F3BA17620773078407950720F079F4F6
:10175000A6F50C945C0B0EF4E0950B2EBA2FA02D81
:101760000B01B90190010C01CA01A0011124FF274E
:10177000591B99F0593F50F4503E68F11A16F04049
:10178000A22F232F342F4427585FF3CF4695379548
:101790002795A795F0405395C9F77EF41F16BA0B0D
:1017A000620B730B840BBAF09150A1F0FF0FBB1FBB
:1017B000661F771F881FC2F70EC0BA0F621F731F04
:1017C000841F48F4879577956795B795F7959E3F61
:1017D00008F0B0CF9395880F08F09927EE0F9795F2
:1017E000879508950E94060C0C94290B0E94220BE9
:1017F00058F00E941B0B40F029F45F3F29F00C9435
:10180000120B51110C945D0B0C94180B0E943A0BA7
:1018100068F39923B1F3552391F3951B550BBB271F
:10182000AA2762177307840738F09F5F5F4F220F64
:10183000331F441FAA1FA9F335D00E2E3AF0E0E85B
:1018400032D091505040E695001CCAF72BD0FE2FA5
:1018500029D0660F771F881FBB1F26173707480739
:10186000AB07B0E809F0BB0B802DBF01FF279358F1
:101870005F4F3AF09E3F510578F00C94120B0C9498
:101880005D0B5F3FE4F3983ED4F3869577956795BB
:10189000B795F7959F5FC9F7880F911D9695879526
:1018A00097F90895E1E0660F771F881FBB1F621745
:1018B00073078407BA0720F0621B730B840BBA0B03
:1018C000EE1F88F7E09508950E94420B88F09F571D
:1018D00098F0B92F9927B751B0F0E1F0660F771F54
:1018E000881F991F1AF0BA95C9F714C0B13091F04A
:1018F0000E945C0BB1E008950C945C0B672F782F6D
:101900008827B85F39F0B93FCCF38695779567950E
:10191000B395D9F73EF490958095709561957F4F7A
:101920008F4F9F4F08950E94810A08F48FEF08950A
:101930000E94810A880B990B0895052E97FB1EF4CF
:1019400000940E94B40C57FD07D00E94630B07FC63
:1019500003D04EF40C94B40C5095409530952195DD
:101960003F4F4F4F5F4F08959095809570956195CB
:101970007F4F8F4F9F4F0895EE0FFF1F0590F491FB
:08198000E02D0994F894FFCF5B
:10198800000000008C01EC001901D9014A0128016E
:101998003C016E616E00696E66006F766600564D9A
:1019A8004450565F317C315F564D4450560A0056BC
:1019B8004D4450525F00564D4450455F003A323A0C
:1019C800007C005F564D445045000D0A0043757277
:1019D80072656E742048756D6964697479203D205C
:1019E8000025203B200043757272656E7420546593
:1019F8006D7065726174757265203D200043203BEF
:101A0800200044697374616E636520696E20434DDC
:101A1800203D2000636D203B200044697374616E93
:101A2800636520696E20496E63686573203D2000F8
:101A3800696E6368657320200A0A0044616E6765F1
:101A48007220212121204F62737461636C652041EB
:0C1A58006865616420212121200A0A0039
:107E0000112484B714BE81FFF0D085E080938100F7
:107E100082E08093C00088E18093C10086E0809377
:107E2000C20080E18093C4008EE0C9D0259A86E02C
:107E300020E33CEF91E0309385002093840096BBD3
:107E4000B09BFECF1D9AA8958150A9F7CC24DD24C4
:107E500088248394B5E0AB2EA1E19A2EF3E0BF2EE7
:107E6000A2D0813461F49FD0082FAFD0023811F036
:107E7000013811F484E001C083E08DD089C08234E0
:107E800011F484E103C0853419F485E0A6D080C0E4
:107E9000853579F488D0E82EFF2485D0082F10E0AE
:107EA000102F00270E291F29000F111F8ED06801E7
:107EB0006FC0863521F484E090D080E0DECF843638
:107EC00009F040C070D06FD0082F6DD080E0C81688
:107ED00080E7D80618F4F601B7BEE895C0E0D1E017
:107EE00062D089930C17E1F7F0E0CF16F0E7DF06D8
:107EF00018F0F601B7BEE89568D007B600FCFDCFD4
:107F0000A601A0E0B1E02C9130E011968C91119780
:107F100090E0982F8827822B932B1296FA010C0160
:107F200087BEE89511244E5F5F4FF1E0A038BF0790
:107F300051F7F601A7BEE89507B600FCFDCF97BE46
:107F4000E89526C08437B1F42ED02DD0F82E2BD052
:107F50003CD0F601EF2C8F010F5F1F4F84911BD097
:107F6000EA94F801C1F70894C11CD11CFA94CF0C13
:107F7000D11C0EC0853739F428D08EE10CD085E9AC
:107F80000AD08FE07ACF813511F488E018D01DD067
:107F900080E101D065CF982F8091C00085FFFCCF94
:107FA0009093C60008958091C00087FFFCCF809118
:107FB000C00084FD01C0A8958091C6000895E0E648
:107FC000F0E098E1908380830895EDDF803219F02E
:107FD00088E0F5DFFFCF84E1DECF1F93182FE3DFCA
:107FE0001150E9F7F2DF1F91089580E0E8DFEE27F6
:047FF000FF270994CA
:027FFE00040479
:0400000300007E007B
:00000001FF